{
  "contractName": "SimpleTicket",
  "abi": [
    {
      "constant": true,
      "inputs": [],
      "name": "hash",
      "outputs": [
        {
          "name": "",
          "type": "bytes32"
        }
      ],
      "payable": false,
      "stateMutability": "view",
      "type": "function"
    },
    {
      "constant": true,
      "inputs": [],
      "name": "cost",
      "outputs": [
        {
          "name": "",
          "type": "uint256"
        }
      ],
      "payable": false,
      "stateMutability": "view",
      "type": "function"
    },
    {
      "constant": true,
      "inputs": [],
      "name": "Creator",
      "outputs": [
        {
          "name": "",
          "type": "address"
        }
      ],
      "payable": false,
      "stateMutability": "view",
      "type": "function"
    },
    {
      "constant": false,
      "inputs": [
        {
          "name": "a",
          "type": "address"
        },
        {
          "name": "key",
          "type": "uint256"
        }
      ],
      "name": "redeem",
      "outputs": [
        {
          "name": "",
          "type": "bool"
        }
      ],
      "payable": false,
      "stateMutability": "nonpayable",
      "type": "function"
    },
    {
      "constant": true,
      "inputs": [
        {
          "name": "user",
          "type": "address"
        },
        {
          "name": "i",
          "type": "uint256"
        }
      ],
      "name": "listKey",
      "outputs": [
        {
          "name": "key",
          "type": "uint256"
        }
      ],
      "payable": false,
      "stateMutability": "view",
      "type": "function"
    },
    {
      "constant": true,
      "inputs": [
        {
          "name": "a",
          "type": "address"
        },
        {
          "name": "i",
          "type": "uint256"
        }
      ],
      "name": "printTT",
      "outputs": [
        {
          "name": "",
          "type": "bytes32"
        },
        {
          "name": "",
          "type": "uint256"
        }
      ],
      "payable": false,
      "stateMutability": "view",
      "type": "function"
    },
    {
      "constant": true,
      "inputs": [],
      "name": "available",
      "outputs": [
        {
          "name": "",
          "type": "uint256"
        }
      ],
      "payable": false,
      "stateMutability": "view",
      "type": "function"
    },
    {
      "constant": true,
      "inputs": [
        {
          "name": "user",
          "type": "address"
        }
      ],
      "name": "listTickets",
      "outputs": [
        {
          "name": "n",
          "type": "uint256"
        }
      ],
      "payable": false,
      "stateMutability": "view",
      "type": "function"
    },
    {
      "constant": false,
      "inputs": [
        {
          "name": "user",
          "type": "address"
        }
      ],
      "name": "returnparams",
      "outputs": [
        {
          "name": "",
          "type": "uint256"
        },
        {
          "name": "",
          "type": "uint256"
        },
        {
          "name": "",
          "type": "uint256"
        }
      ],
      "payable": false,
      "stateMutability": "nonpayable",
      "type": "function"
    },
    {
      "constant": false,
      "inputs": [
        {
          "name": "number",
          "type": "uint256"
        }
      ],
      "name": "SendTicket",
      "outputs": [],
      "payable": true,
      "stateMutability": "payable",
      "type": "function"
    },
    {
      "constant": true,
      "inputs": [],
      "name": "redeemstart",
      "outputs": [
        {
          "name": "",
          "type": "uint256"
        }
      ],
      "payable": false,
      "stateMutability": "view",
      "type": "function"
    },
    {
      "constant": true,
      "inputs": [],
      "name": "start",
      "outputs": [
        {
          "name": "",
          "type": "uint256"
        }
      ],
      "payable": false,
      "stateMutability": "view",
      "type": "function"
    },
    {
      "constant": true,
      "inputs": [
        {
          "name": "key",
          "type": "uint256"
        }
      ],
      "name": "listowner",
      "outputs": [
        {
          "name": "",
          "type": "address"
        },
        {
          "name": "",
          "type": "bytes32"
        }
      ],
      "payable": false,
      "stateMutability": "view",
      "type": "function"
    },
    {
      "constant": true,
      "inputs": [],
      "name": "end",
      "outputs": [
        {
          "name": "",
          "type": "uint256"
        }
      ],
      "payable": false,
      "stateMutability": "view",
      "type": "function"
    },
    {
      "constant": true,
      "inputs": [],
      "name": "redeemby",
      "outputs": [
        {
          "name": "",
          "type": "uint256"
        }
      ],
      "payable": false,
      "stateMutability": "view",
      "type": "function"
    },
    {
      "inputs": [
        {
          "name": "s",
          "type": "uint256"
        },
        {
          "name": "e",
          "type": "uint256"
        },
        {
          "name": "rs",
          "type": "uint256"
        },
        {
          "name": "rb",
          "type": "uint256"
        },
        {
          "name": "c",
          "type": "uint256"
        },
        {
          "name": "number",
          "type": "uint256"
        }
      ],
      "payable": false,
      "stateMutability": "nonpayable",
      "type": "constructor"
    },
    {
      "anonymous": false,
      "inputs": [
        {
          "indexed": false,
          "name": "key",
          "type": "uint256"
        },
        {
          "indexed": false,
          "name": "hash",
          "type": "uint256"
        }
      ],
      "name": "Printed",
      "type": "event"
    }
  ],
  "bytecode": "0x6060604052341561000f57600080fd5b60405160c080610b898339810160405280805190602001909190805190602001909190805190602001909190805190602001909190805190602001909190805190602001909190505062015180840242016004819055506201518083024201600381905550620151808602420160018190555062015180850242016002819055508160068190555033600560006101000a81548173ffffffffffffffffffffffffffffffffffffffff021916908373ffffffffffffffffffffffffffffffffffffffff16021790555080600081905550444142604051808481526020018373ffffffffffffffffffffffffffffffffffffffff1673ffffffffffffffffffffffffffffffffffffffff166c010000000000000000000000000281526014018281526020019350505050604051809103902060078160001916905550505050505050610a2a8061015f6000396000f3006060604052600436106100db576000357c0100000000000000000000000000000000000000000000000000000000900463ffffffff16806309bd5a60146100e057806313faede61461011157806318bee97e1461013a5780631e9a69501461018f57806325b9574c146101e957806340ae25a11461023f57806348a0d754146102a4578063669e231e146102cd578063753df44f1461031a5780637ab84cae14610375578063a0e672911461038d578063be9a6555146103b6578063ee8c60fb146103df578063efbe1c1c14610451578063f50ea1f31461047a575b600080fd5b34156100eb57600080fd5b6100f36104a3565b60405180826000191660001916815260200191505060405180910390f35b341561011c57600080fd5b6101246104a9565b6040518082815260200191505060405180910390f35b341561014557600080fd5b61014d6104af565b604051808273ffffffffffffffffffffffffffffffffffffffff1673ffffffffffffffffffffffffffffffffffffffff16815260200191505060405180910390f35b341561019a57600080fd5b6101cf600480803573ffffffffffffffffffffffffffffffffffffffff169060200190919080359060200190919050506104d5565b604051808215151515815260200191505060405180910390f35b34156101f457600080fd5b610229600480803573ffffffffffffffffffffffffffffffffffffffff16906020019091908035906020019091905050610635565b6040518082815260200191505060405180910390f35b341561024a57600080fd5b61027f600480803573ffffffffffffffffffffffffffffffffffffffff16906020019091908035906020019091905050610690565b6040518083600019166000191681526020018281526020019250505060405180910390f35b34156102af57600080fd5b6102b76106f2565b6040518082815260200191505060405180910390f35b34156102d857600080fd5b610304600480803573ffffffffffffffffffffffffffffffffffffffff169060200190919050506106f8565b6040518082815260200191505060405180910390f35b341561032557600080fd5b610351600480803573ffffffffffffffffffffffffffffffffffffffff16906020019091905050610741565b60405180848152602001838152602001828152602001935050505060405180910390f35b61038b6004808035906020019091905050610799565b005b341561039857600080fd5b6103a06109a3565b6040518082815260200191505060405180910390f35b34156103c157600080fd5b6103c96109a9565b6040518082815260200191505060405180910390f35b34156103ea57600080fd5b61040060048080359060200190919050506109af565b604051808373ffffffffffffffffffffffffffffffffffffffff1673ffffffffffffffffffffffffffffffffffffffff16815260200182600019166000191681526020019250505060405180910390f35b341561045c57600080fd5b6104646109f2565b6040518082815260200191505060405180910390f35b341561048557600080fd5b61048d6109f8565b6040518082815260200191505060405180910390f35b60075481565b60065481565b600560009054906101000a900473ffffffffffffffffffffffffffffffffffffffff1681565b6000600454421180156104e9575060035442105b15156104f457600080fd5b6000600b60008573ffffffffffffffffffffffffffffffffffffffff1673ffffffffffffffffffffffffffffffffffffffff1681526020019081526020016000205411151561054257600080fd5b60011515600a600084815260200190815260200160002060009054906101000a900460ff161515141561062a576001600b60008573ffffffffffffffffffffffffffffffffffffffff1673ffffffffffffffffffffffffffffffffffffffff1681526020019081526020016000205403600b60008573ffffffffffffffffffffffffffffffffffffffff1673ffffffffffffffffffffffffffffffffffffffff168152602001908152602001600020819055506000600a600084815260200190815260200160002060006101000a81548160ff0219169083151502179055506001905061062f565b600090505b92915050565b6000600960008473ffffffffffffffffffffffffffffffffffffffff1673ffffffffffffffffffffffffffffffffffffffff168152602001908152602001600020600083815260200190815260200160002054905092915050565b600080600754600960008673ffffffffffffffffffffffffffffffffffffffff1673ffffffffffffffffffffffffffffffffffffffff168152602001908152602001600020600085815260200190815260200160002054915091509250929050565b60005481565b6000600b60008373ffffffffffffffffffffffffffffffffffffffff1673ffffffffffffffffffffffffffffffffffffffff168152602001908152602001600020549050919050565b6000806000600b60008573ffffffffffffffffffffffffffffffffffffffff1673ffffffffffffffffffffffffffffffffffffffff168152602001908152602001600020546006546000549250925092509193909250565b6000600154421180156107ad575060025442105b15156107b857600080fd5b81600054101515156107c957600080fd5b600654820234101515156107dc57600080fd5b600090505b8181101561091a5733600860008054815260200190815260200160002060006101000a81548173ffffffffffffffffffffffffffffffffffffffff021916908373ffffffffffffffffffffffffffffffffffffffff1602179055506001600a60008054815260200190815260200160002060006101000a81548160ff021916908315150217905550600054600960003373ffffffffffffffffffffffffffffffffffffffff1673ffffffffffffffffffffffffffffffffffffffff1681526020019081526020016000206000600b60003373ffffffffffffffffffffffffffffffffffffffff1673ffffffffffffffffffffffffffffffffffffffff16815260200190815260200160002054840181526020019081526020016000208190555060016000540360008190555080806001019150506107e1565b81600b60003373ffffffffffffffffffffffffffffffffffffffff1673ffffffffffffffffffffffffffffffffffffffff1681526020019081526020016000205401600b60003373ffffffffffffffffffffffffffffffffffffffff1673ffffffffffffffffffffffffffffffffffffffff168152602001908152602001600020819055505050565b60045481565b60015481565b6000806008600084815260200190815260200160002060009054906101000a900473ffffffffffffffffffffffffffffffffffffffff1660075491509150915091565b60025481565b600354815600a165627a7a72305820d69c61b525e0e1fac81788ddfbdfe008e43517b7e74f5753f39e2ac0df8a4d370029",
  "source": "\ncontract SimpleTicket{\n\nuint  public available;\nuint  public  start;\nuint  public  end;\nuint public  redeemby;\nuint public  redeemstart;\naddress public Creator;\nuint   public cost;\nbytes32 public hash;\n\nmapping (uint=>address ) private  keys;\nmapping (address=> mapping (uint =>uint) ) private  keyown;\nmapping  (uint=>bool) keyvalid;\nmapping (address=>uint) private  tickets;\n\n\nevent Printed(\nuint key,uint256 hash\n);\n\n\nfunction SimpleTicket(uint s,uint e,uint rs,uint rb,uint c,uint number){\n        redeemstart=now + rs*1 days;\n        redeemby=(now +rb*1 days);\n\t      start=now +s*1 days;\n        end=now +e*1 days;\n        cost=c;\n        Creator=msg.sender;\n        available=number;\n        hash=keccak256(block.difficulty, block.coinbase, now);\n\n\n}\n\n\n function  SendTicket (uint number) payable public{\n    require((now>start) && (now<end));\n    require(available>=number);\n    require(msg.value>=number*cost);\n\n\n\n\n      for(uint i=0;i<number;i++){\n\n        keys[available]=msg.sender;\n        keyvalid[available]=true;\n        keyown[msg.sender][i+tickets[msg.sender]]=available;\n        available=available-1;\n      }\n     tickets[msg.sender]= tickets[msg.sender]+number;\n}\n\nfunction  redeem(address a,uint key) public returns (bool) {\n    require((now>redeemstart) && (now<redeemby));\n    require(tickets[a]>0);\n\n\t if(keyvalid[key]==true){\n\t    tickets[a]=tickets[a]-1;\n      keyvalid[key]=false;\n\t   return true;\n\t}\n\telse{\n\t   return false;\n\t}\n}\nfunction printTT(address a,uint i) public  view returns (bytes32,uint  ){\n\n\n\n\n       return (hash,keyown[a][i]);\n\n\n\n\n\n}\nfunction returnparams(address user) public returns(uint,uint, uint){\n  return(tickets[user],cost,available);\n}\n\nfunction listKey(address user, uint i) public view returns(uint key){\n  return keyown[user][i];\n}\nfunction listTickets(address user) public view returns(uint n){\n  return tickets[user];\n}\nfunction listowner(uint key) public view returns (address , bytes32){\n  return (keys[key],hash);\n\n}\n}\n",
  "sourcePath": "/home/jjj/TicketReact/contracts/SimpleTicket.sol",
  "compiler": {
    "name": "solc",
    "version": "0.4.18+commit.9cf6e910.Emscripten.clang"
  },
  "schemaVersion": "1.0.1",
  "updatedAt": "2018-01-30T04:12:24.548Z"
}